:020000040000fa
:080000000002040000000000f2
:020000040000fa
:04000800e002000012
:020000040000fa
:04000c00e602000008
:020000040000fa
:0400100002030000e7
:020000040000fa
:04001400ec020000fa
:020000040000fa
:04001800f2020000f0
:020000040000fa
:04001c00f8020000e6
:020000040000fa
:0400200006030000d3
:020000040000fa
:04002400fe020000d8
:020000040000fa
:04002800fe020000d4
:020000040000fa
:04002c00fe020000d0
:020000040000fa
:04003000fe020000cc
:020000040000fa
:04003400fe020000c8
:020000040000fa
:04003800fe020000c4
:020000040000fa
:04003c00fe020000c0
:020000040000fa
:04004000fe020000bc
:020000040000fa
:04004400fe020000b8
:020000040000fa
:04004800fe020000b4
:020000040000fa
:04004c00fe020000b0
:020000040000fa
:04005000fe020000ac
:020000040000fa
:04005400fe020000a8
:020000040000fa
:04005800fe020000a4
:020000040000fa
:04005c00fe020000a0
:020000040000fa
:04006000fe0200009c
:020000040000fa
:04006400fe02000098
:020000040000fa
:04006800fe02000094
:020000040000fa
:04006c00fe02000090
:020000040000fa
:04007000fe0200008c
:020000040000fa
:04007400fe02000088
:020000040000fa
:04007800fe02000084
:020000040000fa
:04007c00fe02000080
:020000040000fa
:04008000fe0200007c
:020000040000fa
:04008400fe02000078
:020000040000fa
:04008800fe02000074
:020000040000fa
:04008c00fe02000070
:020000040000fa
:04009000fe0200006c
:020000040000fa
:04009400fe02000068
:020000040000fa
:04009800fe02000064
:020000040000fa
:04009c00fe02000060
:020000040000fa
:0400a000fe0200005c
:020000040000fa
:0400a400fe02000058
:020000040000fa
:0400a800fe02000054
:020000040000fa
:0400ac00fe02000050
:020000040000fa
:0400b000fe0200004c
:020000040000fa
:0400b400fe02000048
:020000040000fa
:0400b800fe02000044
:020000040000fa
:0400bc00fe02000040
:020000040000fa
:0400c000fe0200003c
:020000040000fa
:0400c400fe02000038
:020000040000fa
:0400c800fe02000034
:020000040000fa
:0400cc00fe02000030
:020000040000fa
:0400d000fe0200002c
:020000040000fa
:0400d400fe02000028
:020000040000fa
:0400d800fe02000024
:020000040000fa
:0400dc00fe02000020
:020000040000fa
:0400e000fe0200001c
:020000040000fa
:0400e400fe02000018
:020000040000fa
:0400e800fe02000014
:020000040000fa
:0400ec00fe02000010
:020000040000fa
:0400f000fe0200000c
:020000040000fa
:0400f400fe02000008
:020000040000fa
:0400f800fe02000004
:020000040000fa
:0400fc00fe02000000
:020000040000fa
:04010000fe020000fb
:020000040000fa
:04010400fe020000f7
:020000040000fa
:04010800fe020000f3
:020000040000fa
:04010c00fe020000ef
:020000040000fa
:04011000fe020000eb
:020000040000fa
:04011400fe020000e7
:020000040000fa
:04011800fe020000e3
:020000040000fa
:04011c00fe020000df
:020000040000fa
:04012000fe020000db
:020000040000fa
:04012400fe020000d7
:020000040000fa
:04012800fe020000d3
:020000040000fa
:04012c00fe020000cf
:020000040000fa
:04013000fe020000cb
:020000040000fa
:04013400fe020000c7
:020000040000fa
:04013800fe020000c3
:020000040000fa
:04013c00fe020000bf
:020000040000fa
:04014000fe020000bb
:020000040000fa
:04014400fe020000b7
:020000040000fa
:04014800fe020000b3
:020000040000fa
:04014c00fe020000af
:020000040000fa
:04015000fe020000ab
:020000040000fa
:04015400fe020000a7
:020000040000fa
:04015800fe020000a3
:020000040000fa
:04015c00fe0200009f
:020000040000fa
:04016000fe0200009b
:020000040000fa
:04016400fe02000097
:020000040000fa
:04016800fe02000093
:020000040000fa
:04016c00fe0200008f
:020000040000fa
:04017000fe0200008b
:020000040000fa
:04017400fe02000087
:020000040000fa
:04017800fe02000083
:020000040000fa
:04017c00fe0200007f
:020000040000fa
:04018000fe0200007b
:020000040000fa
:04018400fe02000077
:020000040000fa
:04018800fe02000073
:020000040000fa
:04018c00fe0200006f
:020000040000fa
:04019000fe0200006b
:020000040000fa
:04019400fe02000067
:020000040000fa
:04019800fe02000063
:020000040000fa
:04019c00fe0200005f
:020000040000fa
:0401a000fe0200005b
:020000040000fa
:0401a400fe02000057
:020000040000fa
:0401a800fe02000053
:020000040000fa
:0401ac00fe0200004f
:020000040000fa
:0401b000fe0200004b
:020000040000fa
:0401b400fe02000047
:020000040000fa
:0401b800fe02000043
:020000040000fa
:0401bc00fe0200003f
:020000040000fa
:0401c000fe0200003b
:020000040000fa
:0401c400fe02000037
:020000040000fa
:0401c800fe02000033
:020000040000fa
:0401cc00fe0200002f
:020000040000fa
:0401d000fe0200002b
:020000040000fa
:0401d400fe02000027
:020000040000fa
:0401d800fe02000023
:020000040000fa
:0401dc00fe0200001f
:020000040000fa
:0401e000fe0200001b
:020000040000fa
:0401e400fe02000017
:020000040000fa
:0401e800fe02000013
:020000040000fa
:0401ec00fe0200000f
:020000040000fa
:0401f000fe0200000b
:020000040000fa
:0401f400fe02000007
:020000040000fa
:0401f800fe02000003
:020000040000fa
:0401fc00fe020000ff
:020000040000fa
:04020000fe020000fa
:020000040000fa
:04020400fe020000f6
:020000040000fa
:04020800fe020000f2
:020000040000fa
:04020c00fe020000ee
:020000040000fa
:04021000fe020000ea
:020000040000fa
:04021400fe020000e6
:020000040000fa
:04021800fe020000e2
:020000040000fa
:04021c00fe020000de
:020000040000fa
:04022000fe020000da
:020000040000fa
:04022400fe020000d6
:020000040000fa
:04022800fe020000d2
:020000040000fa
:04022c00fe020000ce
:020000040000fa
:04023000fe020000ca
:020000040000fa
:04023400fe020000c6
:020000040000fa
:04023800fe020000c2
:020000040000fa
:04023c00fe020000be
:020000040000fa
:04024000fe020000ba
:020000040000fa
:04024400fe020000b6
:020000040000fa
:04024800fe020000b2
:020000040000fa
:04024c00fe020000ae
:020000040000fa
:04025000fe020000aa
:020000040000fa
:04025400fe020000a6
:020000040000fa
:04025800fe020000a2
:020000040000fa
:04025c00fe0200009e
:020000040000fa
:04026000fe0200009a
:020000040000fa
:04026400fe02000096
:020000040000fa
:04026800fe02000092
:020000040000fa
:04026c00fe0200008e
:020000040000fa
:04027000fe0200008a
:020000040000fa
:04027400fe02000086
:020000040000fa
:04027800fe02000082
:020000040000fa
:04027c00fe0200007e
:020000040000fa
:04028000fe0200007a
:020000040000fa
:100400000f0021000eff2c000e01880000000000ec
:10041000000020000000e000020032000001200087
:10042000200288000c000700e03c200001002000b2
:100430000f000700000020000000e0000200320072
:1004400000000200000000000a030200000000009b
:100450000040da000000fe00200020000000e00064
:100460000200320010002000900188000000060009
:10047000a1028800800078000000eb001a0037001d
:10048000e280400054a0b4009101ba00e280400034
:1004900054a0b4009102ba00e280400054a0b4001d
:1004a0000002eb00472bde00f507b200a601880032
:1004b000602ce10008003a000049eb000201e8006e
:1004c000020039003420ec0002f0a0008301e900b2
:1004d000f9ff3e00040037006128e100010032000e
:1004e0000082eb000b00070011c3ba001101ba0033
:1004f0000604e00003003a000200e000e0ff3a00da
:1005000000000600f607b200a6028800820078000c
:10051000f5ff370004d0a300e20f49001c003900aa
:10052000810278003549ba000201e8000200390072
:100530003420ec0002f0a0008301e9000f0032003b
:100540002549ba000201e800020039003420ec001d
:1005500002f0a0008301e900080032000400e0007e
:100560000600320015c9ba000201e8000200390095
:100570003420ec0002f0a0008301e9008180e80053
:1005800054a0b4000300e000e2ff3a0000000600bf
:100590009102ba00055978008301e900f7ff3200a3
:1005a000c82ade00055978008301e900f3ff320014
:1005b0000400e000f1ff320011d9ba00eeff37006d
:1005c0000000fa00c028a900ffff37000000fa0071
:1005d000c068a900ffff37000000fa00c048a9006a
:1005e000ffff37000000fa00c088a900ffff3700b6
:1005f0000000fa00c0a8a900ffff37000000fa00c1
:10060000ffff37000000fa00ffff37000000fa008c
:04061000ffff3700b1
:020000040000fa
:100614000400fa005d000700550007002071800007
:100624004600de00614060000004a20061406000fa
:100634000080fb00610060004600dd002271800044
:10064400f1fb2f008100610001007000207188001f
:10065400207180004700de00614060000004a200b9
:10066400614060000080fb00610060004700dd0025
:1006740022718000f1f72f008100610001007000f9
:1006840020718800207180004800de006140600015
:100694000004a200614060000080fb006100600073
:1006a4004800dd0022718000f1ef2f00810061001d
:1006b4000100700020718800a07180004500de00f8
:1006c400614060000004a200614060000080fb0003
:1006d400610060004500dd00a2718000f1fd2f0083
:1006e4008100610001007000a07188009171800098
:1006f40000042000008060000000e0000e003200d2
:100704006000b800008fbe00040037001200200013
:10071400030020001e0f41005e974900f0d3200023
:10072400310020001e01be00800f5100818f59004e
:10073400f6ff3400b9ff37006000b800008fbe0038
:100744000400370012002000030020001e0f4100a7
:100754005e974900f0e12400010020001e01be0064
:10076400800f5100818f5900f6ff3400abff370032
:100774000000fa0020cea90020eea900210ea90055
:1007840030aea9000080fa00000006000000fa0064
:080794000080fa0000000600dd
:020000040000fa
:04079c00d003800006
:020000040000fa
:0407a0000000000055
:00000001FF
