:020000040000fa
:080000000002040000000000f2
:020000040000fa
:04000800da0c00000e
:020000040000fa
:04000c00ec0c0000f8
:020000040000fa
:04001000440d00009b
:020000040000fa
:04001400fe0c0000de
:020000040000fa
:04001800100d0000c7
:020000040000fa
:04001c00220d0000b1
:020000040000fa
:04002000540d00007b
:020000040000fa
:04002400340d000097
:020000040000fa
:04002800340d000093
:020000040000fa
:04002c00340d00008f
:020000040000fa
:04003000340d00008b
:020000040000fa
:04003400340d000087
:020000040000fa
:04003800e0020000e2
:020000040000fa
:04003c00340d00007f
:020000040000fa
:04004000340d00007b
:020000040000fa
:04004400340d000077
:020000040000fa
:04004800340d000073
:020000040000fa
:04004c00340d00006f
:020000040000fa
:04005000340d00006b
:020000040000fa
:04005400340d000067
:020000040000fa
:04005800340d000063
:020000040000fa
:04005c00340d00005f
:020000040000fa
:04006000340d00005b
:020000040000fa
:04006400340d000057
:020000040000fa
:04006800340d000053
:020000040000fa
:04006c00340d00004f
:020000040000fa
:04007000340d00004b
:020000040000fa
:04007400340d000047
:020000040000fa
:04007800340d000043
:020000040000fa
:04007c00340d00003f
:020000040000fa
:04008000340d00003b
:020000040000fa
:04008400340d000037
:020000040000fa
:04008800e80200008a
:020000040000fa
:04008c00340d00002f
:020000040000fa
:04009000340d00002b
:020000040000fa
:04009400340d000027
:020000040000fa
:04009800340d000023
:020000040000fa
:04009c00340d00001f
:020000040000fa
:0400a000340d00001b
:020000040000fa
:0400a400340d000017
:020000040000fa
:0400a800340d000013
:020000040000fa
:0400ac00340d00000f
:020000040000fa
:0400b000340d00000b
:020000040000fa
:0400b400340d000007
:020000040000fa
:0400b800340d000003
:020000040000fa
:0400bc00340d0000ff
:020000040000fa
:0400c000340d0000fb
:020000040000fa
:0400c400340d0000f7
:020000040000fa
:0400c800340d0000f3
:020000040000fa
:0400cc00340d0000ef
:020000040000fa
:0400d000340d0000eb
:020000040000fa
:0400d400340d0000e7
:020000040000fa
:0400d800340d0000e3
:020000040000fa
:0400dc00340d0000df
:020000040000fa
:0400e000340d0000db
:020000040000fa
:0400e400340d0000d7
:020000040000fa
:0400e800340d0000d3
:020000040000fa
:0400ec00340d0000cf
:020000040000fa
:0400f000340d0000cb
:020000040000fa
:0400f400340d0000c7
:020000040000fa
:0400f800340d0000c3
:020000040000fa
:0400fc00340d0000bf
:020000040000fa
:04010000340d0000ba
:020000040000fa
:04010400340d0000b6
:020000040000fa
:04010800340d0000b2
:020000040000fa
:04010c00340d0000ae
:020000040000fa
:04011000340d0000aa
:020000040000fa
:04011400340d0000a6
:020000040000fa
:04011800340d0000a2
:020000040000fa
:04011c00340d00009e
:020000040000fa
:04012000340d00009a
:020000040000fa
:04012400340d000096
:020000040000fa
:04012800340d000092
:020000040000fa
:04012c00340d00008e
:020000040000fa
:04013000340d00008a
:020000040000fa
:04013400340d000086
:020000040000fa
:04013800340d000082
:020000040000fa
:04013c00340d00007e
:020000040000fa
:04014000340d00007a
:020000040000fa
:04014400340d000076
:020000040000fa
:04014800340d000072
:020000040000fa
:04014c00340d00006e
:020000040000fa
:04015000340d00006a
:020000040000fa
:04015400340d000066
:020000040000fa
:04015800340d000062
:020000040000fa
:04015c00340d00005e
:020000040000fa
:04016000340d00005a
:020000040000fa
:04016400340d000056
:020000040000fa
:04016800340d000052
:020000040000fa
:04016c00340d00004e
:020000040000fa
:04017000340d00004a
:020000040000fa
:04017400340d000046
:020000040000fa
:04017800340d000042
:020000040000fa
:04017c00340d00003e
:020000040000fa
:04018000340d00003a
:020000040000fa
:04018400340d000036
:020000040000fa
:04018800340d000032
:020000040000fa
:04018c00340d00002e
:020000040000fa
:04019000340d00002a
:020000040000fa
:04019400340d000026
:020000040000fa
:04019800340d000022
:020000040000fa
:04019c00340d00001e
:020000040000fa
:0401a000340d00001a
:020000040000fa
:0401a400340d000016
:020000040000fa
:0401a800340d000012
:020000040000fa
:0401ac00340d00000e
:020000040000fa
:0401b000340d00000a
:020000040000fa
:0401b400340d000006
:020000040000fa
:0401b800340d000002
:020000040000fa
:0401bc00340d0000fe
:020000040000fa
:0401c000340d0000fa
:020000040000fa
:0401c400340d0000f6
:020000040000fa
:0401c800340d0000f2
:020000040000fa
:0401cc00340d0000ee
:020000040000fa
:0401d000340d0000ea
:020000040000fa
:0401d400340d0000e6
:020000040000fa
:0401d800340d0000e2
:020000040000fa
:0401dc00340d0000de
:020000040000fa
:0401e000340d0000da
:020000040000fa
:0401e400340d0000d6
:020000040000fa
:0401e800340d0000d2
:020000040000fa
:0401ec00340d0000ce
:020000040000fa
:0401f000340d0000ca
:020000040000fa
:0401f400340d0000c6
:020000040000fa
:0401f800340d0000c2
:020000040000fa
:0401fc00340d0000be
:020000040000fa
:04020000340d0000b9
:020000040000fa
:04020400340d0000b5
:020000040000fa
:04020800340d0000b1
:020000040000fa
:04020c00340d0000ad
:020000040000fa
:04021000340d0000a9
:020000040000fa
:04021400340d0000a5
:020000040000fa
:04021800340d0000a1
:020000040000fa
:04021c00340d00009d
:020000040000fa
:04022000340d000099
:020000040000fa
:04022400340d000095
:020000040000fa
:04022800340d000091
:020000040000fa
:04022c00340d00008d
:020000040000fa
:04023000340d000089
:020000040000fa
:04023400340d000085
:020000040000fa
:04023800340d000081
:020000040000fa
:04023c00340d00007d
:020000040000fa
:04024000340d000079
:020000040000fa
:04024400340d000075
:020000040000fa
:04024800340d000071
:020000040000fa
:04024c00340d00006d
:020000040000fa
:04025000340d000069
:020000040000fa
:04025400340d000065
:020000040000fa
:04025800340d000061
:020000040000fa
:04025c00340d00005d
:020000040000fa
:04026000340d000059
:020000040000fa
:04026400340d000055
:020000040000fa
:04026800340d000051
:020000040000fa
:04026c00340d00004d
:020000040000fa
:04027000340d000049
:020000040000fa
:04027400340d000045
:020000040000fa
:04027800340d000041
:020000040000fa
:04027c00340d00003d
:020000040000fa
:04028000340d000039
:020000040000fa
:100400008f0021000eff27000e0188000000000071
:10041000000020000000e000020032000001200087
:10042000200288000c00070080dc20000100200072
:100430000f000700000020000000e0000200320072
:100440000000020000000000040c02000000000098
:100450000040da000000fe00200020000000e00064
:100460000200320010002000900188000000060009
:10047000a1028800800078000000eb001a0037001d
:10048000e280400054a0b4009101ba00e280400034
:1004900054a0b4009102ba00e280400054a0b4001d
:1004a0000002eb00472bde00f507b200a601880032
:1004b000602ce10008003a000049eb000201e8006e
:1004c000020039003420ec0002f0a0008301e900b2
:1004d000f9ff3e00040037006128e100010032000e
:1004e0000082eb000b00070011c3ba001101ba0033
:1004f0000604e00003003a000200e000e0ff3a00da
:1005000000000600f607b200a6028800820078000c
:10051000f5ff370004d0a300e20f49001c003900aa
:10052000810278003549ba000201e8000200390072
:100530003420ec0002f0a0008301e9000f0032003b
:100540002549ba000201e800020039003420ec001d
:1005500002f0a0008301e900080032000400e0007e
:100560000600320015c9ba000201e8000200390095
:100570003420ec0002f0a0008301e9008180e80053
:1005800054a0b4000300e000e2ff3a0000000600bf
:100590009102ba00055978008301e900f7ff3200a3
:1005a000c82ade00055978008301e900f3ff320014
:1005b0000400e000f1ff320011d9ba00eeff37006d
:1005c0000000fa000088a9000080fa000040060040
:1005d000801f78000000fa00202080004800de0024
:1005e0007f4060000080fb000000e000030032005c
:1005f000e10f500003003200040037003064a8000f
:10060000020037003164a8000000000010c0b300f1
:1006100000f0b7000308a9000080fa004f0078003e
:040620000040060090
:020000040000fa
:100624002000fa00200f9800320f9800430f980022
:10063400510f9800640f9800750f98006000b8007f
:10064400008fbe006000b8002007980031079800b2
:100654006000b80040079800510798000004a80003
:100664002e08900000004000000040008000780048
:100674000044200000804000600798002e0890008d
:100684004280de000000400080007800004220002c
:1006940000804000700798002e0890004380de0020
:1006a400000040008000780080412000008040006d
:1006b400000f980040412000100f98005e08900041
:1006c400e10f500049003a003e099000ce09900025
:1006d400f0ff2f00010020000202780003017800df
:1006e40080017800010078000302620000006100cc
:1006f4008000eb00c000dd00000020000001be000f
:100704006120b80000017100818171002207980006
:10071400330798003e089000ce0890004088de0021
:10072400cf80de000001be00300020000100200068
:10073400020278000301780080017800010078004b
:1007440003026200000061008000eb00c000dd00d5
:10075400000020000001be006120b800000171000b
:100764008181710042079800530798003e08900069
:10077400ce0890004288de00cf80de000001be007b
:10078400f07f20000100200002027800830178003d
:10079400000178000100780002016200008061001d
:1007a4008000eb00c000dd0000002000008fbe00d0
:1007b4006110b8001e1f70001e9770001e007800a4
:1007c400c500dd004e00900000804000e8004000bd
:1007d4006e009000010878006e0090000080e80030
:1007e400ae00900001087800190037003e0990001f
:1007f400ce099000f07f2000010020000202780062
:100804008301780000017800010078000201620091
:10081400008061008000eb00c000dd0000002000cb
:10082400008fbe006110b8001e1f70001e9770007c
:100834001e007800c500dd006e00900001087800fd
:100844006e0090000080e8008000eb000108780052
:100854007e009000900078002e08900063006000f5
:100864004200dd00f20020000010dd000080ea00fc
:10087400808060007e009000010878002e089000bf
:10088400630060004200dd00ee0890008008dd0097
:100894007e00900010007800810070007e009000bf
:1008a400010878000e089000900078002e0890004f
:1008b4006700600000004000320020000010dd00ee
:1008c4000080ea00808060000e0890000108780033
:1008d4002e0890006700600000004000fe089000b1
:1008e4008008dd000e089000100078008100700080
:1008f4000e08900001087800110020002e089000d6
:100904000008dd00800078001e08900010007800c8
:10091400810070001e089000010878000004a900fe
:100924000080fa00000006001800fa007007980022
:10093400020f9800130f9800210f9800340f9800ad
:100944006000b800008fbe006000b8002007980067
:10095400310798006000b8004007980051079800dc
:100964000004a8007e009000000040000000400049
:100974008000780000432000008040006007980059
:100984003e089000e10f500053003a000e09900019
:100994009e099000f0ff2f00010020000202780061
:1009a40003017800800178000100780003026200ee
:1009b400000061008000eb00c000dd0000002000aa
:1009c4000001be006120b800000171008181710046
:1009d40022079800330798000e0890009e089000a4
:1009e4004088de00cf80de000001be003000200021
:1009f40001002000020278000301780080017800e1
:100a04000100780003026200000061008000eb0036
:100a1400c000dd00000020000001be006120b8001d
:100a2400000171008181710042079800530798000a
:100a34000e0890009e0890004288de00cf80de0001
:100a44000001be00f07f20000100200002027800b7
:100a5400830178000001780001007800020162003f
:100a6400008061008000eb00c000dd000000200079
:100a7400008fbe006110b8001e1f70001e9770002a
:100a84002e089000e10f500008003a001e00780084
:100a9400c500dd004e00900000804000e8004000ea
:100aa4006e00900001087800060037001e007800f0
:100ab400c500dd004e009000808040006e00900074
:100ac400010878006e0090000080e800ae009000fd
:100ad40001087800220037000e0990009e0990005a
:100ae400f07f2000010020000202780083017800da
:100af40000017800010078000201620000806100ba
:100b04008000eb00c000dd0000002000008fbe006c
:100b14006110b8001e1f70001e9770002e08900010
:100b2400e10f500006003a001e0078004500dd0089
:100b3400e80040006e0090000108780004003700cf
:100b44001e007800c500dd006e00900001087800ea
:100b54006e0090000080e8008000eb00010878003f
:100b64000004a9000080fa00000006002200fa0038
:100b7400889fbe008a9fbe008c9fbe00400f9800d5
:100b8400520f9800630f9800710f98000417980093
:100b94006000b800008fbe006000b8002007980015
:100ba400310798006000b80040079800510798008a
:100bb4006000b80060079800710798006000b800f2
:100bc400000f9800110f98006000b800200f9800e3
:100bd400310f98007e0890000000e00046003200cb
:100be4005e099000ee099000f0032000010020004f
:100bf4000202780003017800800178000100780087
:100c040003026200000061008000eb00c000dd0010
:100c1400000020000001be006120b8000001710046
:100c240081817100020f9800130f98005e089000f4
:100c3400ee0890004a09dd004600de000000710065
:100c4400c688de000001be00f0ff20000100200085
:100c54000202780003017800800178000100780026
:100c640003026200000061008000eb00c000dd00b0
:100c7400000020000001be006120b80000017100e6
:100c840081817100220f9800330f98005e08900054
:100c9400ee0890004288de00cf80de000001be0036
:100ca400f07f200001002000020278000301780098
:100cb40080017800010078000302620000006100f6
:100cc4008000eb00c000dd00000020000001be0039
:100cd4006120b800000171008181710062079800f1
:100ce400730798002e099000be099000220798000f
:100cf40033079800130037005e099000ee09900056
:100d0400f07f200001002000020278000301780037
:100d14008001780001007800030262000000610095
:100d24008000eb00c000dd00000020000001be00d8
:100d34006120b80000017100818171006207980090
:100d4400730798000e109000e10f50001a003a004b
:100d54006e009000fe0090004209dd00ce01de002e
:100d6400830171004201dd007e0890008000eb00e9
:100d740000007100818071000001be000210a0001b
:100d8400028fbe000e0890009e0890004a09dd0004
:100d9400c601de00830171004a01dd00002020004d
:100da400010020000000710081807100400798005c
:100db40051079800120037006e009000fe0090006a
:100dc4004209dd00ce01de00830171004201dd0035
:100dd4007e0890008000eb00001f710001977100f5
:100de4000e0990009e0990004a18dd00c610de002e
:100df400810070004a10dd004007980051079800f8
:100e04007e0890000000e000180032001e00780008
:100e1400800178000310a0004e0890004400dd001b
:100e24006100b8000cc02c001d0020000002d0009e
:100e34000c01d000020042004220a8008d8048002e
:100e44004200a9004220ae004200a8000080d30066
:100e5400a20180000102780000007800a40188004b
:100e640003087800a2018800150037009e0178006d
:100e74004e0890004400dd006100b8000ac02c0058
:100e84001b0020000002d0000a01d0000200420032
:100e94004220a8008b8048004200a9004220ae00f6
:100ea4004200a8000080d300a20180000102780063
:100eb40000007800a401880003087800a2018800db
:100ec400ae0190004e0890004400dd000080e80070
:100ed4006100b80008c02c00190020000002d000f6
:100ee4000801d000020042004220a8008980480086
:100ef4004200a9004220ae004200a8000080d300b6
:100f0400a20180000102780000007800a40188009a
:100f140003087800a2018800ce0190004e089000da
:100f24004400dd00640040006100b80006c02c00ed
:100f3400170020000002d0000601d0000200420089
:100f44004220a800878048004200a9004220ae0049
:100f54004200a8000080d300a201800001027800b2
:100f640000007800a401880003087800a20188002a
:100f74004f06be004f05be004f04be000080fa00bd
:100f8400000006001400fa00889fbe008a9fbe007d
:100f94008c9fbe00000f780011079800220798006c
:100fa4003307980044079800550798001e007800fe
:100fb4004400dd00640040006100b80002c02c0061
:100fc4006207980013002000730798006e029000d7
:100fd400fe0290000003d0000401d0000200430090
:100fe4004220a800858048004200a9004220ae00ab
:100ff4004200a8000080d3009201800081017800a3
:101004009301880000000000000078009000780040
:10101400920188000000000000ff2f008080600023
:101024001e009000808140001e0078004400dd0016
:10103400640040006100b80004c02c00040f980054
:1010440015002000150f98000e0a90009e0a9000cb
:101054000003d0000401d000020043004220a80095
:10106400858048004200a9004220ae004200a8004a
:101074000080d300a2018000010278000000780003
:10108400a401880003087800a20188001e007800eb
:101094004400dd00660040006100b8000cc02c0074
:1010a4001d0020008001d0000c02d000048041000b
:1010b4004220a8008d8048004200a9004220ae00d2
:1010c4004200a8000080d300ae019000a20180007d
:1010d4000102780000007800a40188000308780069
:1010e400a20188001e0078004400dd006800400072
:1010f4006100b8000ac02c001b0020008002d00050
:101104000a03d000068042004220a8008b804800d9
:101114004200a9004220ae004200a8000080d30093
:10112400be019000a2018000010278000000780056
:10113400a401880003087800a20188001e0078003a
:101144004400dd006a0040006100b80008c02c00c3
:10115400190020000001d0008801d00003004100e4
:101164004220a800898048004200a9004220ae0025
:101174004200a8000080d300ce019000a2018000ac
:101184000102780000007800a401880003087800b8
:10119400a20188001e0078004400dd006c004000bd
:1011a4006100b80006c02c00170020000002d00027
:1011b4008602d000050042004220a8008780480033
:1011c4004200a9004220ae004200a8000080d300e3
:1011d400de019000a2018000010278000000780086
:1011e400a401880003087800a20188004f06be000d
:1011f4004f05be004f04be000080fa000000060048
:101204000400fa00100798000004a80040412000e0
:10121400000f78001e007800900078001200200073
:101224001e0090000010dd000080ea008080600055
:101234001e007800010878000004a9000080fa006c
:10124400000006000000fa0024cea90024eea90044
:10125400250ea90034aea90020cea90020eea900d5
:10126400210ea90030aea9000080fa00000006009b
:101274000000fa000002eb008000eb0032012000c5
:10128400030020000000eb0038fe07008002eb00a2
:101294000002eb008001eb000001eb008000eb009a
:1012a4000000eb0037ff07000080fa000000060092
:1012b4000000fa000002eb008000eb002200200096
:1012c400030020001000200028fe07008002eb002d
:1012d4000002eb008001eb000001eb008000eb005a
:1012e4001000200027ff07000080fa00000006001d
:1012f4000000fa000002eb008000eb000210200066
:10130400030020002000200018fe07008002eb00ec
:101314000002eb008001eb000001eb008000eb0019
:101324002000200017ff07000080fa0000000600dc
:101334000c00fa0040079800510798004e009000f6
:10134400de00900092018000810178009301880002
:101354000000000000007800100f7800920188005f
:10136400000000004e009000de00900000017800b4
:101374002000b000000169004260af0000f0a0004e
:101384000281d2000180b000400798005107980004
:101394004e009000de0090009201800081017800f0
:1013a400930188000000000000007800100078001d
:1013b4001007980092018800000000004e00900081
:1013c400de009000000178002000b00000016900f8
:1013d4004260af0000f0a0000281d2000180b000a2
:1013e40040079800510798004e009000de009000de
:1013f40092018000810178009301880000000000c0
:1014040000007800100078002007980092018800fe
:101414000000000024eea900f0c0b300604798006b
:101424001500370024cea9001e0078000040780083
:101434006140600061406000614060000080fb002a
:10144400610060004500dd00a2718000f1fd2f0005
:101454008100610001007000a07188001e00780006
:101464000000d100000f780024cea8006e40900048
:101474000040e900604798006e4090000004e000de
:10148400e8ff3d00f0c0b300604798001500370046
:1014940024cea9001e009000004078006140600046
:1014a40061406000614060000080fb0061006000fa
:1014b4004500dd00a2718000f1fd2f008100610074
:1014c40001007000a07188001e0090000000d1008f
:1014d4001007980024cea8006e4090000040e90058
:1014e400604798006e4090000004e000e8ff3d0073
:1014f400f0c0b300604798001500370024cea9005f
:101504002e0090000040780061406000614060005f
:10151400614060000080fb00610060004500dd0068
:10152400a2718000f1fd2f008100610001007000b4
:10153400a07188002e0090000000d10020079800c0
:1015440024cea8006e4090000040e9006047980057
:101554006e409000e14f5000e8ff3c0024cea9000b
:1015640024eea800250ea80024eea9000080fa00ad
:10157400000006000000fa00000222000058880063
:1015840020442000605888007000200070588800b3
:10159400600420001058880000c02c0020588800e7
:1015a400062bef0001eba8000080fa000000060003
:1015b4000000fa00000220000059880000442000c6
:1015c40060598800700020007059880020022000b3
:1015d4001059880000c02c0020598800262bef00e9
:1015e40021eba8000080fa00000006000000fa00c9
:1015f4000164a800802080000060a0000070a000aa
:10160400802088008120800000fc2f000080600082
:1016140080208800902080000030a0000040a000be
:101624000050a0009020880012e4a80090208000c0
:101634000080a0000090a10000a0a00090208800dd
:10164400902080000000a1000010a1000020a00054
:101654009020880012c4a8000080fa000000060050
:101664000000fa00002080000080a1000090a1008a
:1016740000a0a000002088000000000001208000dd
:10168400000e20008080600000082000808f500041
:10169400faff3a00d5ff07003120800000fe2f003a
:1016a400008060000030a0003020880030208000de
:1016b40000d0a10000e0a00000f0a00030208800cd
:1016c4000164a90015002000f40020008000eb0054
:1016d40002012000030020000000eb00d0fb070003
:1016e40015002000f40020008000eb001200200010
:1016f4000300200010002000c9fb07000002eb00db
:1017040011002000f27f20000300200010002000c0
:1017140085fc0700002080000080a1000090a1004b
:1017240000a0a1000020880000000000012080002b
:10173400000e2000008060000000e000fbff3a0083
:101744002a24ef005021800040218800402180009d
:1017540010218800102180000021880030e4a800b6
:1017640031e4a80032e4a80033e4a80034e4a8007b
:1017740035e4a800802180000000a0000010a00033
:1017840080218800802180000080a0000090a000bb
:1017940080218800902180000000a0000010a0009b
:1017a40090218800902180000080a0000090a0007b
:1017b40090218800a02180000000a0000010a0005b
:1017c400a0218800a02180000080a0000090a0003b
:1017d400a02188001134800000fc2f0000806000ec
:1017e400e000b30010348800a136800000f82f0018
:1017f400008060008001b300a03688000080fa00f9
:10180400000006000400fa00889fbe008a9fbe0004
:10181400ac000700d500070091ff070055ff070043
:1018240063ff07002088a8002308a80090fe070093
:101834009ffe0700aefe07003064a9003164a900d2
:101844003264a9003364a9003464a9003564a90092
:101854007cfe0700010037000000000000d0bf003c
:101864000004e000fcff32004020800000407800cb
:10187400f043b200004f78001e80fb004400dd00fe
:101884006100b8000ac02c001b0020000001d00039
:101894008a01d000030041004220a8008b80480048
:1018a4004200a9004220ae004200a8000080d300fc
:1018b40092018000810178009301880000000000fb
:1018c40000007800100078009201880000000000f9
:1018d400c200de00f07f2000008060001007980046
:1018e4001e009000e10f500016003a0008c02c00c2
:1018f400190020001e80fb004400dd008000eb0086
:1019040066004000e0804800808fd2008180d200d1
:101914000000780000f0a1000801d0008001d00090
:10192400030041004220a80081804c004200a9002d
:101934004220ae004200a8000080d3007cfe0700d5
:1019440001003700000000001e407800ef4f5000f7
:10195400090036001e80fb006f00600011002000ab
:101964000008dd00800078001021800000806800fd
:1019740010218800070037001e80fb0011002000a2
:101984000008dd00800078000021800000806800ed
:10199400002188000070ef00b0ff37000200fa0059
:1019a4000040eb00004f78000080fa0000000600c1
:1019b4003600f800809fbe00829fbe00849fbe0058
:1019c400869fbe000000fa00c028a900f3ff0700ac
:1019d400ffff37003600f800809fbe00829fbe00e4
:1019e400849fbe00869fbe000000fa00c068a90064
:1019f400eaff0700ffff37003600f800809fbe00b3
:101a0400829fbe00849fbe00869fbe000000fa0035
:101a1400c048a900e1ff0700ffff37003600f800c7
:101a2400809fbe00829fbe00849fbe00869fbe0032
:101a34000000fa00c088a900d8ff0700ffff3700a4
:101a44003600f800809fbe00829fbe00849fbe00c7
:101a5400869fbe000000fa00c0a8a900cfff0700bf
:101a6400ffff37003600f800809fbe00829fbe0053
:101a7400849fbe00869fbe000000fa00c7ff0700d7
:101a8400ffff37003600f800809fbe00829fbe0033
:101a9400849fbe00869fbe000000fa00bfff0700bf
:101aa400ffff37003600f800809fbe00829fbe0013
:101ab400849fbe00869fbe000000fa00b7ff0700a7
:101ac400ffff37000000fa0060022000303a88006f
:101ad400203a80000060a1000070a100203a880034
:101ae400213a800000fe2f0000806000203a880028
:101af4004827ef0040a7a9003200200080072000fb
:101b0400a1092000337420008049780081497800bd
:101b14008249780012002000600420007105200032
:101b24002374200080497800814978008249780034
:101b340000000000113a800000002700808060004f
:101b440000002300808f5000faff3a0000000000dc
:101b5400113a800000022000008060000000e000d4
:101b6400fbff32000080fa00000006000000fa00cb
:101b74000028ef000228ef000428ef000628ef00f9
:0c1b84000828ef000080fa0000000600b6
:020000040000fa
:101b900002100000060000008000000000cc0000e1
:101ba00000020000800000000010000002000000a1
:081bb00080000000dc0d800044
:020000040000fa
:041bb8000000000029
:020000040000fa
:02000004000af0
:04afe000cfff00009f
:020000040000fa
:02000004000af0
:04afe400ffff00006b
:020000040000fa
:02000004000af0
:04afe8007fff0000e7
:020000040000fa
:02000004000af0
:04afec005dff000005
:020000040000fa
:02000004000af0
:04aff00078ff0000e6
:020000040000fa
:02000004000af0
:04aff400ffff00005b
:00000001FF
